:1000000060EF11F00000000000EF00F000000000C1
:0A0010000000000000000000F3D71C
:0E001C000101C1B102D08B9801D08B88120077
:0E002A000101C1B102D08B9601D08B8612006D
:0E0038000101C1B102D08D9601D08D8612005B
:0E0046000101C1B102D0899401D08984120059
:0E0054000101C1B102D08B9C01D08B8C120037
:0E0062000101C1B102D08B9401D08B84120039
:0E0070000101C1B102D08B9A01D08B8A12001F
:0E007E000101C1B102D08B9E01D08B8E120009
:0E008C000101C1B102D08A9201D08A82120015
:0E009A000101C1B102D08D9401D08D841200FD
:0E00A8000101C1B102D08F9201D08F821200EF
:0E00B6000101C1B102D08F9401D08F841200DD
:0E00C4000101C1B102D08B9801D08B881200CF
:0E00D2000101C1B102D08B9601D08B861200C5
:0E00E0000101C1B102D08A9401D08A841200BD
:0E00EE000101C1B102D08B9801D08B881200A5
:0E00FC000101C1B102D08B9601D08B8612009B
:0E010A000101C1B102D08F9001D08F80120090
:0E0118000101C1B102D08B9A01D08B8A120076
:0E0126000101C1B102D08B9801D08B8812006C
:0E0134000101C1B102D08B9601D08B86120062
:0E0142000101C1B102D08B9201D08B8212005C
:0E0150000101C1B102D08B9A01D08B8A12003E
:0E015E000101C1B102D08D9001D08D80120040
:10016C000F0121B302D00000FBD7C1C11CFF12004C
:0E017C00ACB202D00000FCD7C1C1ADFF120032
:0E018A000101C1B102D08B9001D08B80120018
:0E0198000101C1B102D0899001D0898012000E
:0E01A6000101C1B102D08A9001D08A801200FE
:0E01B4000101C1B102D08D9201D08D821200E6
:0E01C2000101C1B102D0899801D089881200D4
:0E01D0000101C1B102D08B9801D08B881200C2
:0E01DE000101C1B102D08B9601D08B861200B8
:0E01EC000101C1B102D0899201D089821200B6
:0E01FA000101C1B102D08B9C01D08B8C120090
:0E0208000101C1B102D08B9E01D08B8E12007D
:0E0216000101C1B102D08B9801D08B8812007B
:0E0224000101C1B102D08B9601D08B86120071
:10023200F250026EF29E0500FF6A0150FE6E0050FF
:08024200FD6E02BEF28E1200F7
:10024A00C7B409D01F0EC514016E0150000A03E19C
:0A025A00010E006E01D0006A1200D0
:1002640068B409D01F0E6614016E0150000A03E140
:0A027400010E006E01D0006A1200B6
:0A027E00000E82B6010E006E1200A1
:0A028800000EACB2010E006E120071
:0A029200000E80B0010E006E120095
:0A029C00000E82B0010E006E120089
:0A02A600000E82BA010E006E120075
:0A02B000000E82B8010E006E12006D
:0A02BA00000E84B0010E006E120069
:1002C4001DCF01F00F0122A302D02299228901C07F
:0402D40000F0120024
:0A02D800000E80B4010E006E12004B
:0A02E200000E82B6010E006E12003D
:1002EC00AECF01F0ABA202D0AB98AB8801C000F04E
:0202FC001200EE
:0C02FE00000E0F0121B3010E006E120073
:0A030A00000EA4BA010E006E1200EE
:0A031400000E9EBA010E006E1200EA
:0A031E00000E82BA010E006E1200FC
:0A032800000E82B8010E006E1200F4
:0A033200000E82B4010E006E1200EE
:0A033C00000E81B0010E006E1200E9
:0A034600000E82B6010E006E1200D8
:0A035000000E82BE010E006E1200C6
:0A035A00000E81B2010E006E1200C9
:0A036400000E82B6010E006E1200BA
:0A036E00000E82BC010E006E1200AA
:0A037800000E82B2010E006E1200AA
:0A038200000E84B2010E006E12009E
:0A038C00000E82BE010E006E12008A
:0A039600000E80B8010E006E120088
:0A03A000000E80B2010E006E120084
:1003AA002EC0BDF12FC0BEF130C0BFF131C0C0F1C7
:1003BA000101BB6BBC6BBC51120802E1BB518E0838
:1003CA0008E34BDF005201E004D00101BB4BBC2B18
:1003DA00F2D70101120EBC5D02E18F0EBB5D03E391
:1003EA007B0E006E24D0668066A020D02E502F107F
:1003FA00301031101AE0BD51BE11BF11C0110EE10B
:10040A0073C0E1FF74C0E2FF050EE66E71C000F032
:10041A0072C001F009DF010E006E09D0010E010160
:10042A00BD5F000EBE5BBF5BC05BDED7006A120019
:10043A002AC0BDF12BC0BEF12CC0BFF12DC0C0F146
:10044A009E96C5869EB61FD02A502B102C102D10B2
:10045A0019E00101BD51BE11BF11C0110CE14FC01D
:10046A00E1FF50C0E2FF030EE66E4DC000F04EC041
:10047A0001F0DADE08D0010E0101BD5F000EBE5B9D
:10048A00BF5BC05BDFD70101C9CFBCF1BB51000A1A
:10049A0002E1C58A01D0C59A9E96C5882AC0BDF1D7
:1004AA002BC0BEF12CC0BFF12DC0C0F19EB61FD02B
:1004BA002A502B102C102D1019E00101BD51BE112C
:1004CA00BF11C0110CE14FC0E1FF50C0E2FF030EA3
:1004DA00E66E4DC000F04EC001F0A6DE08D0010E57
:1004EA000101BD5F000EBE5BBF5BC05BDFD7BCC155
:0404FA0000F01200FC
:0A04FE00000E86B4010E006E12001D
:0A050800000E82B8010E006E120012
:0A051200000E81B4010E006E12000D
:0A051C00000E82B8010E006E1200FE
:100526002AC0BDF12BC0BEF12CC0BFF12DC0C0F159
:100536000101BB6BBC6BBC51120802E1BB518E08BA
:1005460008E380DE005201E004D00101BB4BBC2B66
:10055600F2D70101120EBC5D02E18F0EBB5D03E313
:100566007B0E006E24D0C580C5A020D02A502B104B
:100576002C102D101AE0BD51BE11BF11C0110EE195
:100586004FC0E1FF50C0E2FF050EE66E4DC000F021
:100596004EC001F04BDE010E006E09D0010E0101C6
:1005A600BD5F000EBE5BBF5BC05BDED7006A12009C
:1005B6002EC0BBF12FC0BCF130C0BDF131C0BEF1C1
:1005C600668266A21FD02E502F103010311019E00F
:1005D6000101BB51BC11BD11BE110CE173C0E1FF9D
:1005E60074C0E2FF060EE66E71C000F072C001F044
:1005F6001DDE08D0010E0101BB5F000EBC5BBD5BBA
:06060600BE5BDFD712000D
:04060C0066841200EE
:0A061000000E86B2010E006E12000B
:04061A00C584120081
:10061E002EC0BDF12FC0BEF130C0BFF131C0C0F150
:10062E00A19A6686A1BA1FD02E502F10301031100D
:10063E0019E00101BD51BE11BF11C0110CE173C013
:10064E00E1FF74C0E2FF030EE66E71C000F072C0EF
:10065E0001F0E8DD08D0010E0101BD5F000EBE5BAA
:10066E00BF5BC05BDFD701016ACFBCF1BB51000A93
:10067E0002E1668A01D0669AA19A66882EC0BDF103
:10068E002FC0BEF130C0BFF131C0C0F1A1BA1FD032
:10069E002E502F103010311019E00101BD51BE1136
:1006AE00BF11C0110CE173C0E1FF74C0E2FF030E75
:1006BE00E66E71C000F072C001F0B4DD08D0010E1C
:1006CE000101BD5F000EBE5BBF5BC05BDFD7BCC16F
:0406DE0000F0120016
:0A06E200000E82B6010E006E120039
:0A06EC00000E82BC010E006E120029
:0A06F600000E82B8010E006E120023
:0A070000000E82B8010E006E120018
:10070A00A19ABBC16AFF2EC0BCF12FC0BDF130C097
:10071A00BEF131C0BFF168A421D02E502F10301085
:10072A0031101BE00101BC51BD11BE11BF110EE118
:10073A0073C0E1FF74C0E2FF040EE66E71C000F000
:10074A0072C001F071DD010E006E3AD0010E010196
:10075A00BC5F000EBD5BBE5BBF5BDDD72EC0BCF1CC
:10076A002FC0BDF130C0BEF131C0BFF1A1BA21D056
:10077A002E502F10301031101BE00101BC51BD1159
:10078A00BE11BF110EE173C0E1FF74C0E2FF040E97
:10079A00E66E71C000F072C001F046DD010E006E17
:1007AA000FD0010E0101BC5F000EBD5BBE5BBF5BDB
:1007BA00DDD766BC02D0006A03D06684020E006EE2
:0207CA0012001B
:1007CC002AC0BBF12BC0BCF12CC0BDF12DC0BEF1B9
:1007DC00C582C5A21FD02A502B102C102D1019E049
:1007EC000101BB51BC11BD11BE110CE14FC0E1FFA9
:1007FC0050C0E2FF060EE66E4DC000F04EC001F098
:10080C0012DD08D0010E0101BB5F000EBC5BBD5BAD
:06081C00BE5BDFD71200F5
:0A082200000E84B4010E006E1200F7
:0A082C00000E86B0010E006E1200EF
:100836009E96BBC1C9FF2AC0BCF12BC0BDF12CC01E
:10084600BEF12DC0BFF1C7A421D02A502B102C1009
:100856002D101BE00101BC51BD11BE11BF110EE1EF
:100866004FC0E1FF50C0E2FF040EE66E4DC000F03F
:100876004EC001F0DBDC010E006E3AD0010E010124
:10088600BC5F000EBD5BBE5BBF5BDDD72AC0BCF1A3
:100896002BC0BDF12CC0BEF12DC0BFF19EB621D03C
:1008A6002A502B102C102D101BE00101BC51BD113C
:1008B600BE11BF110EE14FC0E1FF50C0E2FF040EB2
:1008C600E66E4DC000F04EC001F0B0DC010E006EC9
:1008D6000FD0010E0101BC5F000EBD5BBE5BBF5BAE
:1008E600DDD7C5BC02D0006A03D0C584020E006EF7
:0208F6001200EE
:0A08F800000E82BA010E006E12001D
:0A090200000E82B6010E006E120016
:0A090C00000E84B6010E006E12000A
:100916000101B16BB26B89C100F08AC101F086DCBE
:1009260000C0B1F1000E0101B26FB1C100F0B2C159
:0409360001F01200BA
:10093A000101B96BBA6BB2C1B7F1B3C1B8F1B1C1B8
:10094A0000F000360090008083C1E1FF84C1E2FF1D
:10095A0000C0E6FF81C100F082C101F065DC0050F1
:10096A000101B913000EBA13010EB45F000EB55B94
:10097A00B451B51115E07BC1E1FF7CC1E2FF010E64
:10098A00E66E79C100F07AC101F04EDCB7C1E1FF31
:10099A00B8C1E2FF00C0E6FF0101B74BB82BE4D7AC
:1009AA007BC1E1FF7CC1E2FFE66A79C100F07AC14E
:1009BA0001F03ADCB7C1E1FFB8C1E2FF00C0E6FFCF
:1009CA000101B651000A05E17DC100F07EC101F0C6
:1009DA002BDC0101B651010A05E185C100F086C18F
:0E09EA0001F022DCB9C100F0BAC101F0120028
:1009F8000B6A0A6A096A086A0E6A033408360450E0
:100A0800085E0550D8A0053C095E0650D8A0063CF3
:100A18000A5E0750D8A0073C0B5EE86AD8A0010E12
:100A28000E5E0336070E0C6E0334083609360A3696
:100A38000B360E36045003A012D0085E0550D8A01D
:100A4800053C095E0650D8A0063C0A5E0750D8A0AF
:100A5800073C0B5EE86AD8A0010E0E5E11D008268E
:100A68000550D8B0053C09260650D8B0063C0A26E1
:100A78000750D8B0073C0B26E86AD8B0010E0E26FE
:100A880003360C2ED1D70234083609360A360B360F
:100A98000E36045003A012D0085E0550D8A0053CBD
:100AA800095E0650D8A0063C0A5E0750D8A0073C4D
:100AB8000B5EE86AD8A0010E0E5E11D0082605501C
:100AC800D8B0053C09260650D8B0063C0A2607507F
:100AD800D8B0073C0B26E86AD8B0010E0E260236BD
:100AE800070E0C6E0234083609360A360B360E36F7
:100AF800045002A012D0085E0550D8A0053C095E3B
:100B08000650D8A0063C0A5E0750D8A0073C0B5EEA
:100B1800E86AD8A0010E0E5E11D008260550D8B09C
:100B2800053C09260650D8B0063C0A260750D8B01E
:100B3800073C0B26E86AD8B0010E0E2602360C2EAA
:100B4800D1D70134083609360A360B360E3604502A
:100B580002A012D0085E0550D8A0053C095E0650D8
:100B6800D8A0063C0A5E0750D8A0073C0B5EE86A8E
:100B7800D8A0010E0E5E11D008260550D8B0053C4D
:100B880009260650D8B0063C0A260750D8B0073CBC
:100B98000B26E86AD8B0010E0E260136070E0C6E39
:100BA8000134083609360A360B360E36045001A0D1
:100BB80012D0085E0550D8A0053C095E0650D8A0A2
:100BC800063C0A5E0750D8A0073C0B5EE86AD8A02E
:100BD800010E0E5E11D008260550D8B0053C092636
:100BE8000650D8B0063C0A260750D8B0073C0B265A
:100BF800E86AD8B0010E0E2601360C2ED1D7003483
:100C0800083609360A360B360E36045001A012D0C3
:100C1800085E0550D8A0053C095E0650D8A0063CE1
:100C28000A5E0750D8A0073C0B5EE86AD8A0010E00
:100C38000E5E11D008260550D8B0053C092606508E
:100C4800D8B0063C0A260750D8B0073C0B26E86AFD
:100C5800D8B0010E0E260036070E0C6E003408368A
:100C680009360A360B360E36045000A012D0085E3C
:100C78000550D8A0053C095E0650D8A0063C0A5E7F
:100C88000750D8A0073C0B5EE86AD8A0010E0E5E9C
:100C980011D008260550D8B0053C09260650D8B012
:100CA800063C0A260750D8B0073C0B26E86AD8B09D
:100CB800010E0E2600360C2ED1D700B00ED00450EF
:100CC80008260550D8B0053C09260650D8B0063C81
:0C0CD8000A260750D8B0073C0B2612007B
:100CE4007C0E0001656F010E666FC10E676F010E09
:100CF400686FEC0E596E020E5A6E000E5B6E000E9B
:100D04005C6E140E616F030E626F000E636F000E53
:100D1400646F880E0101956F020E966F000E976F37
:100D2400000E986FAC8A900EAB6E948E949C9EAA23
:0A0D340003D0AECF00F0FBD7120091
:100D3E004A0E0001756F020E766F000E776F000E71
:100D4E00786F260E556E050E566E000E576E000EFF
:100D5E00586ECC0E496E070E4A6E000E4B6E000E8C
:100D6E004C6E3A0E516E040E526EBB0E536E010E49
:100D7E00546E360E6D6F080E6E6FBB0E6F6F010EDA
:100D8E00706F1A0E696F060E6A6F000E6B6F000E93
:100D9E006C6F949894968B988B9694889486C79E35
:080DAE00C79C380EC66E12004E
:100DB6008FC1E1FF90C1E2FFE66A8DC100F08EC1EE
:080DC60001F019EC01F012002C
:100DCE006C0E0001656F010E666FC10E676F010E2E
:100DDE00686FC40E596E020E5A6E000E5B6E000ED8
:100DEE005C6E0A0E616F030E626F000E636F000E73
:100DFE00646FFE0E0101956F020E966F000E976FD7
:100E0E00000E986F0F01218B900E226F988498928E
:0C0E1E00A4AA03D01DCF00F0FBD71200E7
:100E2A000B6A0A6A096A00500402F4CF09F0F3CF88
:100E3A0008F001500502F4CF0BF0F3CF0AF000508E
:100E4A000502F3500926F4500A22E86A0B220150DF
:100E5A000402F3500926F4500A22E86A0B2208C059
:100E6A0000F009C001F00AC002F00BC003F0120042
:100E7A000101B96BBA6BB2C1B7F1B3C1B8F1B1C173
:100E8A0000F00036009083C1E1FF84C1E2FF00C098
:100E9A00E6FF81C100F082C101F019EC01F00050B7
:100EAA000101B913000EBA13B4C100F0B5C101F0C3
:100EBA00010EB45F000EB55B0050011018E083C14B
:100ECA00E1FF84C1E2FFB7C1E9FFB8C1EAFFEECF93
:100EDA00E6FF81C100F082C101F019EC01F0005077
:100EEA000101B913000EBA13B74BB82BDDD7B651AF
:100EFA00000A06E17DC100F07EC101F019EC01F0A3
:100F0A000101B651010A06E189C100F08AC101F066
:0E0F1A0019EC01F0B9C100F0BAC101F01200EB
:100F2800086A096A100E0C6E013408360936045036
:100F3800085E0550D8A0053C095ED8B007D004501B
:100F480008260550D8B0053C0926D8900036013649
:060F58000C2EEAD7120086
:100F5E00090E0B6E1E0E0C6EE40E0D6E0D2EFED7D0
:0C0F6E000C2EFCD70B2EFAD7000012004E
:100F7A00A7C1AAF1A8C1ABF1A9C1ACF10BD0A00ECF
:100F8A00C86ED8DE44D0280EC86ED4DE40D0040E17
:100F9A00006E3FD0AAC1F6FFABC1F7FFACC1F8FFA4
:100FAA000900F5CF01F00900F5CF02F00900F5CFED
:100FBA0003F00900F5CF04F00450000A08E10350D9
:100FCA00010A05E10250860A02E10150A00AD7E0AF
:100FDA00AAC1F6FFABC1F7FFACC1F8FF0900F5CF14
:100FEA0001F00900F5CF02F00900F5CF03F009007E
:100FFA00F5CF04F00450000A08E10350060A05E19F
:10100A0002501A0A02E10150800ABDE0C0D7000E60
:04101A00006E120052
:10101E00A7C1AAF1A8C1ABF1A9C1ACF10BD0A00E2A
:10102E00C86E86DE44D0280EC86E82DE40D0040E16
:10103E00006E3FD0AAC1F6FFABC1F7FFACC1F8FFFF
:10104E000900F5CF01F00900F5CF02F00900F5CF48
:10105E0003F00900F5CF04F00450000A08E1035034
:10106E00010A05E10250860A02E10150A00AD7E00A
:10107E00AAC1F6FFABC1F7FFACC1F8FF0900F5CF6F
:10108E0001F00900F5CF02F00900F5CF03F00900D9
:10109E00F5CF04F00450000A08E10350060A05E1FA
:1010AE0002501A0A02E10150800ABDE0C0D7000EBC
:0410BE00006E1200AE
:1010C200080E0101A725F66E000EA821F76E000E8C
:1010D200A921F86E0900F5CF8DF10900F5CF8EF147
:0E10E2000900F5CF8FF10900F5CF90F1120053
:1010F000A7C1F6FFA8C1F7FFA9C1F8FF0900F5CF06
:1011000089F10900F5CF8AF10900F5CF8BF10900CB
:10111000F5CF8CF1040E0101A725F66E000EA82173
:10112000F76E000EA921F86E0900F5CF7DF10900D8
:10113000F5CF7EF10900F5CF7FF10900F5CF80F101
:10114000080EA725F66E000EA821F76E000EA92145
:10115000F86E0900F5CF85F10900F5CF86F1090099
:10116000F5CF87F10900F5CF88F10C0EA725F66EB3
:10117000000EA821F76E000EA921F86E0900F5CF28
:1011800081F10900F5CF82F10900F5CF83F1090063
:10119000F5CF84F1100EA725F66E000EA821F76E8C
:1011A000000EA921F86E0900F5CF79F10900F5CFFD
:1011B0007AF10900F5CF7BF10900F5CF7CF112003F
:1011C00021D0CF0EAF6EAC948DDD6BD0670EAF6EBD
:1011D000AC9488DD66D0CF0EAF6EAC8483DD61D079
:1011E000670EAF6EAC847EDD5CD0440EAF6EAC8417
:1011F00079DD57D0220EAF6EAC8474DD52D0060E6E
:10120000006E58D00101000E006EAA1908E10050CE
:10121000A91905E1120EA81902E1A751C00AD1E0EF
:10122000000E006EAA1908E10050A91905E1250E6B
:10123000A81902E1A751800AC9E0000E006EAA19A0
:1012400008E10050A91905E14B0EA81902E1A751C8
:10125000000AC1E0000E006EAA1908E10050A919A9
:1012600005E1960EA81902E1A751000AB9E0000EA7
:10127000006EAA1908E10050A91905E1E10EA819AC
:1012800002E1A751000AB1E0AA51000A08E1A95100
:10129000010A05E1A851C20A02E1A751000AAAE029
:1012A000AED77C0E916F010E926FC10E936F010E3F
:0612B000946F006A1200B9
:1012B60038D00F0120870D0E1F6F040E1E6F21857B
:1012C60083DD7ED00F012087060E1F6F820E1E6FF4
:1012D60021857ADD75D00F012087030E1F6F400E22
:1012E6001E6F218571DD6CD00F012087010E1F6FE7
:1012F600A00E1E6F218568DD63D00F012087010EC9
:101306001F6F150E1E6F21855FDD5AD00F012087D6
:101316001F6B8A0E1E6F218557DD52D0060E006E9A
:1013260059D0000E006E0101AA1908E10050A91952
:1013360005E1120EA81902E1A751C00ABAE0000E93
:10134600006EAA1908E10050A91905E1250EA81991
:1013560002E1A751800AB6E0000E006EAA1908E164
:101366000050A91905E14B0EA81902E1A751000A80
:10137600B2E0000E006EAA1908E10050A91905E1B5
:10138600960EA81902E1A751000AAEE0000E006E03
:10139600AA1908E10050A91905E1E10EA81902E110
:1013A600A751000AAAE0AA51000A08E1A951010AB8
:1013B60005E1A851C20A02E1A751000AA7E0AED78B
:1013C60001016C0E916F010E926FC10E936F010EAB
:0613D600946F006A120092
:1013DC0021D0CF0EAF6EAC947FDC6BD0670EAF6EAE
:1013EC00AC947ADC66D0CF0EAF6EAC8475DC61D079
:1013FC00670EAF6EAC8470DC5CD0440EAF6EAC8408
:10140C006BDC57D0220EAF6EAC8466DC52D0060E6D
:10141C00006E58D00101000E006EAA1908E10050B0
:10142C00A91905E1120EA81902E1A751C00AD1E0D1
:10143C00000E006EAA1908E10050A91905E1250E4D
:10144C00A81902E1A751800AC9E0000E006EAA1982
:10145C0008E10050A91905E14B0EA81902E1A751AA
:10146C00000AC1E0000E006EAA1908E10050A9198B
:10147C0005E1960EA81902E1A751000AB9E0000E89
:10148C00006EAA1908E10050A91905E1E10EA8198E
:10149C0002E1A751000AB1E0AA51000A08E1A951E2
:1014AC00010A05E1A851C20A02E1A751000AAAE00B
:1014BC00AED77C0E916F010E926FC10E936F010E21
:0614CC00946F006A12009B
:1014D20093C1E1FF94C1E2FFA7C1E9FFA8C1EAFFFE
:1014E200EECFE6FF91C100F092C101F019EC01F0DC
:0414F200006A12007A
:1014F60027D0CF0EAF6EAC9472EC06F070D0670EAC
:10150600AF6EAC9472EC06F06AD0CF0EAF6EAC84C0
:1015160072EC06F064D0670EAF6EAC8472EC06F027
:101526005ED0440EAF6EAC8472EC06F058D0220E3C
:10153600AF6EAC8472EC06F052D0060E006E58D038
:101546000101000E006EAA1908E10050A91905E173
:10155600120EA81902E1A751C00ACBE0000E006ED8
:10156600AA1908E10050A91905E1250EA81902E1FA
:10157600A751800AC4E0000E006EAA1908E10050C7
:10158600A91905E14B0EA81902E1A751000ABDE011
:10159600000E006EAA1908E10050A91905E1960E81
:1015A600A81902E1A751000AB6E0000E006EAA19BA
:1015B60008E10050A91905E1E10EA81902E1A751B9
:1015C600000AAFE0AA51000A08E1A951010A05E1A3
:1015D600A851C20A02E1A751000AA9E0AED77C0EC3
:1015E600916F010E926FC10E936F010E946F006A98
:0215F6001200E1
:1015F800A7C1A8F1DBEC06F08BEC04F060C0B1F1F8
:10160800A80EB26F010EB36F010EB46F000EB56F66
:10161800010EB66F2EDC60C0B1F1A90E0101B26FE8
:10162800010EB36F030EB46F000EB56FB66B9DEC71
:1016380004F0A9C1ACF1000E0101AD6FAE6FAF6F40
:10164800AEC103F0ADC102F0ACC101F0006A00C048
:10165800ACF101C0ADF102C0AEF103C0AFF1AA51C7
:101668000010056E01C006F002C007F003C008F0C4
:10167800000E06120712081205C0ACF106C0ADF143
:1016880007C0AEF108C0AFF107C003F006C002F012
:1016980005C001F0006A00C0ACF101C0ADF102C0A4
:1016A800AEF103C0AFF1AB510012000E01120212ED
:1016B800031200C0ACF101C0ADF102C0AEF103C02D
:1016C800AFF1C00E0014056EFF0E0114066EFF0E7A
:1016D8000214076E000E0314086E05C0ACF106C0B4
:1016E800ADF107C0AEF108C0AFF1050E046E05C03C
:1016F80000F006C001F007C002F008C003F0045073
:1017080007E00332023201320032039EFF0FF8D79E
:1017180000C0ACF101C0ADF102C0AEF103C0AFF141
:021728001200AD
:10172A000101A851A75D046E056A000E055AAA5167
:10173A00AC5D006EAB51AD59016E15EC07F0A851C6
:10174A00A95D046E056A000E055A94EC07F0AA51C9
:10175A000026AB5101220A0E0026000E01221200B9
:10176A000101AD6BAE6B000EAE5D02E10A0EAD5D1E
:10177A000BE2AD51AB25E16EAE51AC21E26E200E0B
:10178A00E66EAD4BAE2BEFD7AD51AB25E16EAE5148
:10179A00AC21E26EE66A010EAD5F000EAE5BAD51A2
:1017AA00AB25AF6FAE51AC21B06F0A0E046E000EBE
:1017BA00056E066E076EA7C100F0A8C101F0A9C1A7
:1017CA0002F0AAC103F0FCEC04F008C000F009C062
:1017DA0001F00AC002F00BC003F0300E0026AFC1C0
:1017EA00E1FFB0C1E2FF00C0E6FF0A0E046E000E80
:1017FA00056E066E076EA7C100F0A8C101F0A9C167
:10180A0002F0AAC103F0FCEC04F000C0A7F101C089
:10181A00A8F102C0A9F103C0AAF1000E046E0318D0
:10182A0008E10450021805E10450011802E10050D1
:10183A00000A01E105D0010EAD5F000EAE5BAFD725
:02184A0012008A
:10184C00220E0C6E086A096A0A6A0B6A0C06D8B476
:10185C001FD0D8900B320A320932083203320232CE
:10186C0001320032D8A0F2D70C06D8B409D00450FB
:10187C0008260550092206500A2207500B22EAD7E7
:10188C00045008260550092206500A2207500B2244
:02189C00120038
:10189E0059D00101A8B102D0929001D092800F01CF
:1018AE00259176D00101A8B102D0949001D09480F8
:1018BE006FD00101A8B102D0969001D0968068D069
:1018CE000101A8B102D0949601D0948661D0010195
:1018DE00A8B102D0949801D094885AD00101A8B131
:1018EE0002D0949A01D0948A53D00101A8B102D0AB
:1018FE00949201D094824CD00101A8B102D0939061
:10190E0001D0938045D00101A8B102D0949E01D0A0
:10191E00948E3ED00101A8B102D0949C01D0948C3B
:10192E0037D00101A8B102D0949601D0948630D060
:10193E000101A8B102D0949801D0948829D0010E4B
:10194E00006E28D00101A751000AA3E0A751010A99
:10195E00A9E0A751020AADE0A751030AB1E0A751D1
:10196E00040AB5E0A751050AB9E0A751060ABDE081
:10197E00A751070AC1E0A751080AC5E0A751090AF5
:10198E00C9E0A7510A0ACDE0A7510B0AD1E0D7D77B
:06199E00000E006E1200B5
:1019A400A7C1A9F1A8C1AAF1DBEC06F08BEC04F005
:1019B4005FC0B1F1A90EB26F010EB36F020EB46F26
:1019C400000EB56FB66B3DEC07F0AFEC07F01200FC
:1019D400A7C1AAF1A8C1ABF1A9C1ACF10DD0A00E69
:1019E400C86E9FEC06F045D0280EC86E9FEC06F03A
:1019F40040D0040E006E3FD0AAC1F6FFABC1F7FF82
:101A0400ACC1F8FF0900F5CF01F00900F5CF02F0F1
:101A14000900F5CF03F00900F5CF04F00450000AE3
:101A240008E10350010A05E10250860A02E101506F
:101A3400A00AD5E0AAC1F6FFABC1F7FFACC1F8FF1D
:101A44000900F5CF01F00900F5CF02F00900F5CF48
:101A540003F00900F5CF04F00450000A08E1035034
:101A6400060A05E102501A0A02E10150800ABCE0AC
:081A7400C0D7000E006E120045
:101A7C0059D00101A8B102D0929201D092820F01EB
:101A8C00259376D00101A8B102D0929801D092880A
:101A9C006FD00101A8B102D0969201D0968268D085
:101AAC000101A8B102D0949601D0948661D00101B5
:101ABC00A8B102D0949801D094885AD00101A8B151
:101ACC0002D0949A01D0948A53D00101A8B102D0CB
:101ADC00949401D094844CD00101A8B102D093927B
:101AEC0001D0938245D00101A8B102D0949E01D0BF
:101AFC00948E3ED00101A8B102D0949C01D0948C5C
:101B0C0037D00101A8B102D0949601D0948630D080
:101B1C000101A8B102D0949801D0948829D0010E6B
:101B2C00006E28D00101A751000AA3E0A751010AB9
:101B3C00A9E0A751020AADE0A751030AB1E0A751F1
:101B4C00040AB5E0A751050AB9E0A751060ABDE0A1
:101B5C00A751070AC1E0A751080AC5E0A751090A15
:101B6C00C9E0A7510A0ACDE0A7510B0AD1E0D7D79B
:061B7C00000E006E1200D5
:101B82005DD00101A8B102D0929401D092840F01DC
:101B920025957AD00101A8B102D0969601D09686F9
:101BA20073D00101A8B102D0969401D096846CD072
:101BB2000101A8B102D0949601D0948665D00101AA
:101BC200A8B102D0949801D094885ED00101A8B146
:101BD20002D0949A01D0948A57D00101A8B102D0C0
:101BE200989001D0988050D00101A8B102D093946E
:101BF20001D0938449D00101A8B102D0989401D0B8
:101C020098840F01239540D00101A8B102D0989287
:101C120001D098820F01239337D00101A8B102D0DD
:101C2200949601D0948630D00101A8B102D0949844
:101C320001D0948829D0010E006E28D00101A7514D
:101C4200000A9FE0A751010AA5E0A751020AA9E0F4
:101C5200A751030AADE0A751040AB1E0A751050A52
:101C6200B5E0A751060AB9E0A751070ABDE0A7519E
:101C7200080AC1E0A751090AC7E0A7510A0ACDE044
:0E1C8200A7510B0AD1E0D7D7000E006E12005A
:101C900015D09AC1A7F19BC1A8F101DE1AD09AC153
:101CA000A7F19BC1A8F1EADE14D09AC1A7F19BC1AC
:101CB000A8F167DF0ED0010E006E0BD00101995123
:101CC000000AE7E09951010AEAE09951020AEDE0C1
:041CD000F2D7120035
:101CD4001DD09AC1A7F19BC1A8F19CC1A9F178DEDE
:101CE40020D09AC1A7F19BC1A8F19CC1A9F1BDEC78
:101CF40007F017D09AC1A7F19BC1A8F19CC1A9F123
:101D04000FEC08F00ED0010E006E0BD001019951BA
:101D1400000ADFE09951010AE4E09951020AEAE07D
:041D2400F2D71200E0
:101D28002FD09AC1A7F19BC1A8F19CC1A9F19DC16F
:101D3800AAF1E0EC08F032D09AC1A7F19BC1A8F152
:101D48009CC1A9F19DC1AAF17BEC0AF027D09AC1E8
:101D5800A7F19BC1A8F19CC1A9F19DC1AAF15BECB7
:101D680009F01CD09AC1A7F19BC1A8F19CC1A9F1A7
:101D78009DC1AAF1EEEC09F011D0010E006E0ED053
:101D880001019951000ACDE09951010AD5E0995114
:0E1D9800020ADDE09951100AE5E0EFD71200D3
:0C1DA6000101A76BF10EA86FFADD12001E
:0A1DB20099C141F09AC142F01200FD
:101DBC000101A26BA36B9AC1A7F143C0A8F144C067
:101DCC00A9F145C0AAF146C0ABF147C0ACF148C07F
:101DDC00ADF1A5DC00C0A0F101C0A1F1000E015CC9
:101DEC0002E1460E005C04E2460EA06F000EA16FED
:101DFC0099C19BF1A2C19CF1A3C100F0016A00C082
:101E0C009DF1A0C19EF1A1C100F0016A00C09FF13B
:101E1C00DBEC06F08BEC04F05FC0B1F19B0EB26F03
:101E2C00010EB36F050EB46F000EB56FB66B3DECC3
:041E3C0007F0120099
:101E400099C1A7F1FCEC0AF0FF0E00163F0E011637
:101E5000000E0216031641C004F042C005F0000E49
:101E6000066E076EF3DCFF0E046EFF0E056E000EAD
:0A1E7000066E076EFCEC04F0120091
:101E7A000101A16BA26B99C1A3F19AC1A4F19BC103
:101E8A00A5F19CC1A6F1800E9C19006E800E005C23
:101E9A0008E1000E9B5D05E1000E9A5D02E1000E6D
:101EAA00995D10E2010EA16F000EA26FA36BA46BE5
:101EBA00A56BA66B9951A35F9A51A45B9B51A55B35
:101ECA009C51A65BA3C1A7F1A4C1A8F1A5C1A9F120
:101EDA00A6C1AAF19DC1ABF19EC1ACF141DC0B0ECA
:101EEA009F6F000EA06F000E006EA051005C02E111
:101EFA009F51000819E29F519D25E16EA0519E2134
:101F0A00E26E010E9F5D006E000EA059016E005038
:101F1A009D25E96E01509E21EA6EEECFE6FF010E85
:101F2A009F5F000EA05BDFD79DC1E1FF9EC1E2FF6C
:101F3A00200EE66EA151A2111AE09F6BA06B9F5171
:101F4A009D25E96EA0519E21EA6EEE50200A03E11A
:101F5A009F4BA02BF4D7010E9F5F000EA05B9F51F1
:101F6A009D25E16EA0519E21E26E2D0EE66E1200B5
:101F7A00FE0E01019B6F99C104F09AC105F0000E93
:101F8A00066E076ED70E006E170E016E000E026EF9
:101F9A00000E036EFCEC04F0010E005E000E015A06
:101FAA00025A035A00C09CF1DBEC06F08BEC04F0F9
:101FBA005FC0B1F19B0EB26F010EB36F020EB46F28
:101FCA00000EB56FB66B3DEC07F0AFEC07F01200F0
:101FDA0099C19CF19AC19DF10D0E01019E6F0A0EE5
:101FEA009F6F3AD09CC1A7F19DC1A8F169EC0AF094
:101FFA003ED09CC1E9FF9DC1EAFFEE520AE09CC1B6
:10200A00A7F19DC1A8F169EC0AF001019C4B9D2B37
:10201A00F0D72DD09CC1E9FF9DC1EAFFEE520AE03C
:10202A009CC1A7F19DC1A8F169EC0AF001019C4B82
:10203A009D2BF0D701019E0EA76F010EA86F69ECC8
:10204A000AF09F0E0101A76F010EA86F69EC0AF052
:10205A000ED0060E006E0CD001019B51000AC2E0A0
:10206A009B51010AC6E09B51020AD4E0F2D7006AEA
:02207A00120052
:10207C0099C143F09AC144F0FF0E01019B15456EC6
:10208C009C510F0B466EFF0E9D15476E9E510F0B0C
:04209C00486E120078
:1020A0009FC15FF0A0C160F09CC1A7F19DC1A8F1E4
:1020B0009EC1A9F178EC08F099C1A7F19AC1A8F1E5
:1020C0009BC1A9F161EC08F08FC1E1FF90C1E2FF73
:1020D000E66A8DC100F08EC101F019EC01F012002A
:1020E0000101996B020E9A6F9B6BD2DD0101996B16
:1020F000760E9A6F230E9B6F000E9C6FEBDD100E19
:102100000101996F800E9A6F250E9B6F000E9C6FD8
:102110009D6F0ADE150E0101996F000E9A6F020E77
:102120009B6F5BDF090E0B6E1E0E0C6EE40E0D6EC8
:102130000D2EFED70C2EFCD70B2EFAD70000120066
:102140000900F5CFE6FF0006FBE10106F9E1120008
:10215000CE0E0101996F220E9A6F000E9B6F620ED8
:102160009C6F230E9D6F000E9E6F400E9F6F140E8E
:10217000A06F96DF0101996BB40E9A6F000E9B6FF2
:10218000000E9C6F4A0E9D6F010E9E6F77DFE40E6E
:10219000996F0C0E9A6F0DDE000EA76F800E006E09
:1021A000010E0010A86FD2EC0CF0FDDD1E0E010137
:1021B000996F000E9A6FE1DE000E0101A76F800E8D
:1021C000006E200E0010A86F010EA813D2EC0CF0C8
:0221D0001200FB
:1021D200060E0101996F9A6BF0DDA30E0B6E570E7E
:1021E2000C6E020E0D6E0D2EFED70C2EFCD70B2E92
:1021F200FAD70000060E0101996F5A0E9A6FDDDDC3
:10220200520E0B6E2B0E0C6E000E0D6E0D2EFED7A7
:102212000C2EFCD70B2EFAD70000060E0101996F87
:10222200B40E9A6FCADDA30E0B6E570E0C6E020E21
:102232000D6E0D2EFED70C2EFCD70B2EFAD70000FA
:10224200060E0101996F5A0E9A6FB7DDB00E0101A9
:10225200996FF5DD00C05DF001C05EF000C099F13C
:1022620001C09AF1000E9B6F9C6F790E9D6F000E5C
:102272009E6F02DE360E996F000E9A6F010E9B6FF3
:10228200ABDE790E0101996F000E9A6F010E9B6F02
:10229200A3DE320E0101996F000E9A6F020E9B6F40
:1022A2009BDE520E0B6E2B0E0C6E000E0D6E0D2E63
:0E22B200FED70C2EFCD70B2EFAD70000120020
:0E22C000BDEC11F00DDF44DF84DFFED7FFD749
:10237A0010EE15F0340E006E010E016E2E0EF66E82
:0E238A00230EF76E000EF86EA0EC10F012009D
:1022CE009801C1018A01C1015E01C1013401C10140
:1022DE002601C1015001C1014201C101A601C10186
:1022EE000802C101FA01C1012402C1011602C10195
:1022FE00920200009C020000BA0200007E02000062
:10230E00B0020000A6020000780300003C030000AB
:10231E008C0300006E030000640300001C05000027
:10232E00202D2D2D2073797374656D20696E69745F
:05233E00202D2D2D00F3
:042343000000000096
:042347000000000092
:04234B00206D4100C0
:0B234F0043757272656E74202D200033
:02235A00E40C91
:01235C000080
:01235D00B4CB
:02235E0000007D
:022360004A0130
:10236200260500001A060000CC0700003608BB0153
:042372003A04BB016D
:04237600A08601003C
:020000040030CA
:0E00000015137F7CF98B91FFFFC0FFE0FF40DE
:00000001FF
